:020000040000FA
:1000000000400020DD0000000D0100000F01000095
:1000100000000000000000000000000000000000E0
:1000200000000000000000000000000011010000BE
:100030000000000000000000130100001501000096
:10004000170100001B0100001F0100002301000038
:10005000270100002B0100002F01000033010000E8
:10006000370100003B0100003F0100004301000098
:10007000470100004B0100004F0100005301000048
:10008000570100005B0100005F01000063010000F8
:10009000670100006B0100006F01000073010000A8
:1000A000770100007B0100007F0100008301000058
:1000B000870100008B010000F11400006D150000A5
:1000C0000348854600F00EFB004800473936000023
:1000D0000040002000C0FF1F0040002072B62E49E3
:1000E00009682E4A1268521A013A05DD00200423DD
:1000F00008601944043AFBDA00BF29482949016025
:100100000A6882F3088862B627488047FEE7FEE760
:10011000FEE7FEE7FEE7254800472548004725485B
:1001200000472548004725480047254800472548FF
:1001300000472548004725480047254800472548EF
:1001400000472548004725480047254800472548DF
:1001500000472548004725480047254800472548CF
:1001600000472548004725480047254800472548BF
:1001700000472548004725480047254800472548AF
:10018000004725480047254800472548004725489F
:10019000004725480047FEE7D4000000D8000000D3
:1001A00008ED00E000000000C10000009701000021
:1001B00097010000970100009701000097010000DF
:1001C00097010000970100009701000097010000CF
:1001D000970100005D2D0000672D0000712D0000CB
:1001E0007B2D00009701000097010000970100009F
:1001F000D91F0000E31F0000ED1F00009701000061
:10020000970100009701000097010000970100008E
:1002100055180000C53200009701000019190000B0
:10022000970100009701000097010000024670B599
:100230004A40D30FDB0740002DD04A002AD0010EE0
:10024000140E000212020919400A520A8418E5012C
:1002500004465443000A120A2E045043A4194219BA
:10026000200CC543AA18120C0125AD03521C5219CB
:1002700012047F39240400D0521C104301D44000E2
:10028000491EC2B20C06C0092018401C4008802A32
:1002900002D003E0002070BD40084000002900DAD1
:1002A0000020184370BD0000F0B51FB488B00B9952
:1002B0000998002448400999C00F4900490809914C
:1002C000C0070B990090490049080B9109990898BB
:1002D000A64608431CD00B990A98084318D00998E1
:1002E00001244000420D4800410D099824050003F7
:1002F000000B204309900B980003000B20430B9048
:1003000050181C494018002201901446104605E080
:10031000002001460DB0F0BD032801DA034600E0DD
:1003200003239C46C11A0AAE0AE05F0008ADED5BEC
:100330004F00F75B7D430027AA187C41491C5B1ED8
:100340006145F2DD410004AB5A522104120C0A430C
:10035000240C401C0828DFDB0198029000997046AD
:1003600001910090059B049A0799069800F067F99F
:10037000D0E700000DFCFFFFF0B50C465C4085B0F7
:10038000E40FE40703944C000026640859009446E7
:10039000490802460296224321D062460A431ED0F3
:1003A0006200570D4A000E032303550D0124024637
:1003B0002C492405781B1B0B360B4018234326437E
:1003C000614600901C46501AB44103D30098401C6B
:1003D000009002E0921800985B41002803DA0020A8
:1003E000014605B0F0BD00200121090507468646FB
:1003F00011E064461D46141BB54106D36546521BE9
:10040000B341744607430C43A646CD07400849084C
:10041000284392185B4105460D43EAD11046184324
:1004200013D06046194650407140084306D06046DC
:10043000101AB34106D20122002306E00022012354
:10044000DB0702E00122D2435310009874460105F5
:10045000381C6141029C039D0019694100F0E2F8DB
:10046000BFE70000FD0300000EB5C217C10F5040EA
:10047000CA0740180021054B0293019200910A46D9
:100480000B4600F0DCF803B000BD000033040000B0
:10049000C20F410040020123400ADB05D207090ECA
:1004A000C0187F2901DA00207047962903DC9623C3
:1004B000591AC84001E096398840002AF4D04042D9
:1004C0007047C20FD207400040080BD0C10D072370
:1004D000DB01C91840020905400A1143C208400760
:1004E00011437047002001467047CB0FDB074900DE
:1004F00010B5490802460A4307D00A0D072409032C
:10050000E401090B121B002A01DC002010BDC90008
:10051000440F0C43C100E018D205801800F041F8E8
:1005200010BD70B50446002903D00020202201230D
:1005300010E0002801D00020C043C046C0460DE0B6
:100540002546D5408D4205D30D469540641B1D467A
:10055000954040191546521E002DF1DC214670BD14
:1005600010B5202A04DB0146203A9140002010BD3E
:10057000914020239C1A0346E3401943904010BD4C
:1005800010B5202A04DB0846203AD040002110BDD7
:100590000B46D340D0402024A21A9140084319466C
:1005A00010BD002904DA401C490001D14008400078
:1005B000704770B40024050C05D11024000402D14A
:1005C000002921D01124050E01D100020834050FA5
:1005D00001D10001241D850F01D18000A41C002839
:1005E00001DB4000641C002908D020252E1B0D468D
:1005F000F540A14000D001212943084301061B1BFF
:10060000000ADB1D02D5002070BC7047DB051818FE
:1006100080180029F8DA401C4900F5D170BC400868
:100620004000704710B5002B08DA0024401C6141DF
:1006300092185B411A4301D14008400010BDF0B54B
:100640001FB482B005460C0003D0084603F0A8FA98
:1006500002E003F0A5FA2030024600902146284629
:10066000FFF77EFF049B059A04460F46184311438B
:10067000084314D0184610431BD0009840210A1A92
:1006800018460599FFF77CFF05460E46009A059926
:100690000498FFF765FF084305D0012004E02046D9
:1006A000394607B0F0BD0020C11705430E432C4367
:1006B000374300990E986305401A7905E40A002231
:1006C0000C43FD0A0A3002D500200146E9E7010586
:1006D000101969410C9C0D9D00196941FFF7A2FF9B
:1006E000DFE70000064C0125064E05E0E36807CC75
:1006F0002B430C3C98471034B442F7D3FFF7E4FC8B
:10070000203D0000403D00000A480068C00F00285E
:1007100005D0FFE75B20000606490860FFE70549B2
:10072000086801225302984308600868D207104302
:10073000086070471C40064080B58AB00990089157
:1007400009988008079007988100CB484058069088
:1007500000200590012004900998001F0390832831
:1007600000D982E10398810001A040588746C04625
:10077000810900006B0A00006B0A00006B0A000090
:10078000810900006B0A00006B0A00006B0A000080
:10079000810900006B0A00006B0A00006B0A000070
:1007A000810900006B0A00006B0A00006B0A000060
:1007B000810900006B0A00006B0A00006B0A000050
:1007C000810900006B0A00006B0A00006B0A000040
:1007D000D90900006B0A00006B0A00006B0A0000D8
:1007E000D90900006B0A00006B0A00006B0A0000C8
:1007F000810900006B0A00006B0A00006B0A000010
:10080000810900006B0A00006B0A00006B0A0000FF
:10081000810900006B0A00006B0A00006B0A0000EF
:10082000810900006B0A00006B0A00006B0A0000DF
:10083000810900006B0A00006B0A00006B0A0000CF
:10084000810900006B0A00006B0A00006B0A0000BF
:10085000810900006B0A00006B0A00006B0A0000AF
:10086000810900006B0A00006B0A00006B0A00009F
:10087000810900006B0A00006B0A00006B0A00008F
:10088000810900006B0A00006B0A00006B0A00007F
:100890006B0A00006B0A00006B0A00006B0A000084
:1008A0006B0A00006B0A00006B0A00006B0A000074
:1008B0006B0A00006B0A00006B0A00006B0A000064
:1008C0006B0A00006B0A00006B0A00006B0A000054
:1008D0006B0A00006B0A00006B0A00006B0A000044
:1008E000810900006B0A00006B0A00006B0A00001F
:1008F000810900006B0A00006B0A00006B0A00000F
:10090000810900006B0A00006B0A00006B0A0000FE
:10091000810900006B0A00006B0A00006B0A0000EE
:10092000810900006B0A00006B0A00006B0A0000DE
:100930006B0A00006B0A00006B0A00006B0A0000E3
:100940006B0A00006B0A00006B0A00006B0A0000D3
:100950006B0A00006B0A00006B0A00006B0A0000C3
:100960006B0A00006B0A00006B0A00006B0A0000B3
:100970006B0A00000D0A0000230A0000470A00006D
:10098000069800680005000F401C04900698006857
:100990004006400F401E029003281BD80298810099
:1009A00001A040588746C046B9090000C1090000AF
:1009B000C9090000CF0900007D20000205900AE06F
:1009C0000120C003059006E03B48059003E008982D
:1009D000059000E0FFE749E0069800680005000F79
:1009E000401C0490069800684006400F01900128C2
:1009F00004D0FFE70198022803D005E02E480590B7
:100A000003E00898059000E0FFE72FE03448006815
:100A10000005000F401C0490089800F02FF8059086
:100A200024E02F4801680905090F491C049100685A
:100A30000006000F401C049948430490089800F0F9
:100A40001DF8059012E0264801680905090F491CA8
:100A5000049100680F210840401C04994843049009
:100A6000089800F00BF8059000E0FFE7059804995E
:100A7000FFF757FD0AB080BD0000002082B0019052
:100A800000200090164800684003400F022803D160
:100A9000FFE7019800900BE0114800684003400F09
:100AA000012803D1FFE70448009000E0FFE7FFE7DB
:100AB000009802B07047C0460090D00381B008484B
:100AC00000684003400F012803D1FFE70120009098
:100AD00002E000200090FFE7009801B07047C04698
:100AE0000840064086B00590049105988008039060
:100AF00003988100B8484058029000200190059862
:100B0000001F00906C2800D960E10098810001A0CE
:100B100040588746C90C0000CD0D0000CD0D0000E7
:100B2000CD0D0000C90C0000CD0D0000CD0D000062
:100B3000CD0D0000C90C0000CD0D0000CD0D000052
:100B4000CD0D0000C90C0000CD0D0000CD0D000042
:100B5000CD0D0000C90C0000CD0D0000CD0D000032
:100B6000CD0D0000C90C0000CD0D0000CD0D000022
:100B7000CD0D0000FF0C0000CD0D0000CD0D0000DC
:100B8000CD0D0000FF0C0000CD0D0000CD0D0000CC
:100B9000CD0D0000C90C0000CD0D0000CD0D0000F2
:100BA000CD0D0000C90C0000CD0D0000CD0D0000E2
:100BB000CD0D0000C90C0000CD0D0000CD0D0000D2
:100BC000CD0D0000C90C0000CD0D0000CD0D0000C2
:100BD000CD0D0000C90C0000CD0D0000CD0D0000B2
:100BE000CD0D0000C90C0000CD0D0000CD0D0000A2
:100BF000CD0D0000C90C0000CD0D0000CD0D000092
:100C0000CD0D0000C90C0000CD0D0000CD0D000081
:100C1000CD0D0000C90C0000CD0D0000CD0D000071
:100C2000CD0D0000710D0000CD0D0000CD0D0000B8
:100C3000CD0D0000CD0D0000CD0D0000CD0D00004C
:100C4000CD0D0000CD0D0000CD0D0000CD0D00003C
:100C5000CD0D0000CD0D0000CD0D0000CD0D00002C
:100C6000CD0D0000CD0D0000CD0D0000CD0D00001C
:100C7000CD0D0000CD0D0000CD0D0000CD0D00000C
:100C8000CD0D0000C90C0000CD0D0000CD0D000001
:100C9000CD0D0000C90C0000CD0D0000CD0D0000F1
:100CA000CD0D0000C90C0000CD0D0000CD0D0000E1
:100CB000CD0D0000C90C0000CD0D0000CD0D0000D1
:100CC000CD0D0000C90C000002980068C00F00287C
:100CD00005D0FFE702995B2000060860FFE7049A51
:100CE000029908685207520E7023984380180860D2
:100CF000029908680122D2071043086069E002984F
:100D00000068C00F002805D0FFE702995B200006AD
:100D10000860FFE70498032808D1FFE702990868F4
:100D2000102210436022904308601AE004980428BF
:100D300008D1FFE70299086820221043502290430F
:100D400008600DE00498002806D1FFE702990868C2
:100D500070229043086002E001200190FFE7FFE766
:100D6000FFE7029908680122D2071043086030E0CB
:100D700002980068C00F002805D0FFE702995B20A9
:100D800000060860FFE7049803280AD1FFE7049AE9
:100D9000029908685207520E702398438018086021
:100DA0000DE00498002806D1FFE702990868702238
:100DB0009043086002E001200190FFE7FFE70299FD
:100DC00008680122D2071043086002E00120019068
:100DD000FFE7019806B070470000002080B584B09E
:100DE0000390029101920020009040480068C00FDB
:100DF000002805D0FFE75B2000063C490860FFE7BC
:100E0000029A3A490868D207920F02239843801841
:100E10000860FFF753FE002807D1FFE73349086851
:100E20000122D2071043086045E0039A234908686D
:100E3000D207520F0423984380180860019B08686A
:100E400001221340D2431040C018086008680223F2
:100E50001843086025490868104008600198002878
:100E600015D1FFE700F0A6FA2048016801221143DE
:100E700001600168D207114301600068C003C00F20
:100E8000002803D0FFE701200090FFE709E01749A1
:100E900008680122104308600868D2071043086000
:100EA000FFE70098002805D1FFE7042000F006FACC
:100EB0000090FFE7FFE7009804B080BD18400640AF
:100EC0000A480068C00F002805D0FFE75B20000635
:100ED00006490860FFE70549086801225302984364
:100EE00008600868D2071043086070471440064045
:100EF00085B00490039104988008029002988100C4
:100F0000BF48405801900498001F0090832800D9E2
:100F100073E10098810001A0405887462D11000020
:100F2000FB110000FB110000FB1100002D1100005F
:100F3000FB110000FB110000FB1100002D1100004F
:100F4000FB110000FB110000FB1100002D1100003F
:100F5000FB110000FB110000FB1100002D1100002F
:100F6000FB110000FB110000FB1100002D1100001F
:100F7000FB110000FB110000FB1100002D1100000F
:100F8000FB110000FB110000FB1100002D110000FF
:100F9000FB110000FB110000FB1100002D110000EF
:100FA000FB110000FB110000FB1100002D110000DF
:100FB000FB110000FB110000FB1100002D110000CF
:100FC000FB110000FB110000FB1100002D110000BF
:100FD000FB110000FB110000FB1100002D110000AF
:100FE000FB110000FB110000FB1100002D1100009F
:100FF000FB110000FB110000FB1100002D1100008F
:10100000FB110000FB110000FB1100002D1100007E
:10101000FB110000FB110000FB1100002D1100006E
:10102000FB110000FB110000FB1100002D1100005E
:10103000FB110000FB110000FB110000FB11000080
:10104000FB110000FB110000FB110000FB11000070
:10105000FB110000FB110000FB110000FB11000060
:10106000FB110000FB110000FB110000FB11000050
:10107000FB110000FB110000FB110000FB11000040
:10108000FB110000FB110000FB1100002D110000FE
:10109000FB110000FB110000FB1100002D110000EE
:1010A000FB110000FB110000FB1100002D110000DE
:1010B000FB110000FB110000FB1100002D110000CE
:1010C000FB110000FB110000FB1100002D110000BE
:1010D000FB110000FB110000FB110000FB110000E0
:1010E000FB110000FB110000FB110000FB110000D0
:1010F000FB110000FB110000FB110000FB110000C0
:10110000FB110000FB110000FB110000FB110000AF
:10111000FB110000FB110000FB110000FB1100009F
:101120006511000099110000CB11000001980068C2
:10113000C00F002805D0FFE701995B20000608607A
:10114000FFE7039A019908681207120D0F231B028B
:10115000984380180860019908680122D20710435B
:1011600008604BE054480068C00F002805D0FFE736
:101170005B20000650490860FFE74F4908680F22CE
:1011800012029043039A1202104308600868012279
:10119000D2071043086031E047480068C00F0028BC
:1011A00005D0FFE75B20000643490860FFE742499E
:1011B0000868F0229043039A1201104308600868FF
:1011C0000122D2071043086018E03B480068C00FB6
:1011D000002805D0FFE75B20000637490860FFE7DD
:1011E000354908680F229043039A10430860086845
:1011F0000122D2071043086000E0FFE705B0704706
:101200000000002080B582B001900020009001987D
:10121000012823D1FFE7032000F050F8002803D075
:10122000FFE70120009018E023480068C00F002865
:1012300005D0FFE75B2000061F490860FFE71E4955
:10124000086807221204904301221304C0180860A2
:101250000868D20710430860FFE72AE001980028D9
:1012600023D1FFE7042000F029F8002803D0FFE78E
:101270000120009018E010480068C00F002805D039
:10128000FFE75B2000060C490860FFE70A49086891
:1012900007221204904301225304C0180860086812
:1012A000D20710430860FFE702E001200090FFE74B
:1012B000FFE7009802B080BD0C40064084B0039068
:1012C00000200290012001900398401E0090032806
:1012D00060D80098810001A040588746ED120000B8
:1012E00041130000171300006B130000FFE7029882
:1012F0002B4988420ED8FFE70298401C02902C48E8
:1013000000684007C00F002803D0FFE700200190CD
:1013100000E0ECE741E0FFE70298214988420ED85F
:10132000FFE70298401C029020480068C003C00FED
:10133000002803D0FFE70020019000E0ECE72CE05C
:10134000FFE70298164988420ED8FFE70298401C32
:101350000290154800688005C00F002803D0FFE701
:101360000020019000E0ECE717E0FFE702980C494D
:1013700088420ED8FFE70298401C02900948006896
:10138000C003C00F002803D0FFE70020019000E059
:10139000ECE702E000200190FFE7019804B07047FD
:1013A0009F86010014400640008002401C40064019
:1013B00004D0074080B584B00C4802900021019110
:1013C0000B4909680905090F491C03910399FFF7A7
:1013D000A8F8401C0290FFE70198411C0191029976
:1013E000884201D2FFE7F7E704B080BDAC0D0000F2
:1013F0000840064080B58CB064200421FFF772FBE2
:10140000602000F069FB002004900C210291012271
:10141000019200F0BFF9019A04980D21039100F0A8
:10142000B9F9019A029904980590069007900890DE
:1014300009920A9005AA0092107600F019F9009A14
:101440000399049800F014F9019A0299049800F0A5
:1014500011F8019A0399049800F00CF80299049A83
:10146000104600F025F80399049A104600F020F881
:101470000CB080BD85B00490039102920498810065
:101480001A48405801900198406900900398012142
:101490008140009888430090029903988140009809
:1014A0000843009000980199486105B07047C04614
:1014B00085B0049003910292049881000B48405833
:1014C00001900198006800900398012181400098E4
:1014D0008843009002990398814000980843009047
:1014E00000980199086005B07047C0461C3C000098
:1014F00080B51B480068C00700280CD0FFE7C14832
:10150000006890214058002804D0FFE7002000F038
:1015100057F8FFE7FFE713480068C00700280CD022
:10152000FFE7B848406890214058002804D0FFE702
:10153000012000F045F8FFE7FFE70B480068C0070F
:1015400000280CD0FFE7AF48806890214058002861
:1015500004D0FFE7022000F033F8FFE7FFE780BD8B
:1015600060500640645006406850064080B51248FE
:101570000068C00700280CD0FFE7A248C06890218F
:101580004058002804D0FFE7032000F019F8FFE7D7
:10159000FFE70A480068C00700280CD0FFE7994819
:1015A000006990214058002804D0FFE7042000F093
:1015B00007F8FFE7FFE780BD6C500640705006401B
:1015C00080B586B00590059881008E4840580290FD
:1015D000059881008C48405801900298902140580D
:1015E000049000200390FFE703981F283BD8FFE7F3
:1015F00004980399C840C007002826D0FFE71B487D
:101600000068002806D0FFE718480268059803998B
:10161000904719E001980399890041185B20000662
:101620000861029803998900411808690F22120481
:1016300090430861029803998900411808690122C2
:10164000D20310430861FFE7FFE70498039A0121E2
:1016500091400840029990228B588850FFE70398E8
:10166000401C0390C0E706B080BDC0468400002047
:1016700010B585B0049003910292049881006148EE
:1016800040580190049881005F48405800900198AC
:1016900003998900401800690004C00F002808D091
:1016A000FFE700980399890041185B200006086154
:1016B000FFE702980368012213400198039989000B
:1016C000411808699043C018086102980368022411
:1016D000234001980399890041180869A043C01864
:1016E00008610298436801980399890041180869C4
:1016F000DB071B0F0824A043C01808610298836809
:1017000001980399890041180869DB07DB0E102452
:10171000A043C01808610298C36801980399890022
:1017200041180869DB079B0E2024A043C0180861FC
:101730000298036901980399890041180869DB0739
:101740005B0E4024A043C0180861029843690198C9
:101750000399890041180869DB07D407A043C01822
:1017600008610298037E019803998900411808696D
:10177000DB06DB081F242406A043C018086101987B
:101780000399890041180869D2031043086105B024
:1017900010BDC04685B00490039102920498810068
:1017A000184840580190049881001748405800900C
:1017B000019803998900401800690004C00F0028AF
:1017C00008D0FFE700980399890041185B200006C4
:1017D0000861FFE7029A0198039989004118086996
:1017E0005207520D07231B02984380180861019885
:1017F00003998900411808690122D2031043086146
:1018000005B07047303C0000443C000080B584B017
:101810000390029103980E490091FEF707FDFEF731
:1018200037FE024600200190062101F09BF8009946
:101830000298FEF7FBFCFEF72BFE024601980721FB
:1018400001F090F80198012101F04AF804B080BD40
:1018500000FF7F4780B5294800684003C00F00287B
:1018600022D0FFE725480068C00F002805D0FFE719
:101870005B20000621490860FFE720490868012233
:101880009304184308600868D207104308601C4896
:101890000068002804D0FFE719480068804702E08C
:1018A000FFF70EFBFFE7FFE7164800684003C00F95
:1018B000002822D0FFE713480068C00F002805D099
:1018C000FFE75B2000060F490860FFE70D49086845
:1018D00001229304184308600868D2071043086087
:1018E00007484068002804D0FFE705484068804763
:1018F00002E0FEF709FFFFE7FFE780BD1440064066
:10190000880000201C40064002490868401C08600E
:101910007047C0467400002080B500F093F880BD89
:1019200081B0009000988100694A885801239B0388
:101930001843885001B07047B0B582B00190009153
:1019400000980068012819D1FFE700980369019801
:1019500081005F4A88589B079B0D03242402A04303
:10196000C018885000984369019881008858DB07A7
:101970001B0E8024A043C0188850FFE7009803681E
:1019800001988100524A8858DB075B0D0124A502AB
:10199000A843C01888500098406801998900184BE6
:1019A000CD58C85000988368019881008858DB079B
:1019B0001B0DE402A043C01888500098C36801982A
:1019C0008100885803242340A043C0188850009801
:1019D000C369019881008858DB075B0E4024A0434F
:1019E000C0188850009883690198810088581B07A7
:1019F0009B0E3C24A043C018885002B0B0BDC04626
:101A00001400044083B00290019100920098029962
:101A10008A0030498918019A9200885003B07047B3
:101A200010B582B001900091009B01988100284A76
:101A30008858DB079B0C01246403A043C01888501E
:101A400002B010BD10B582B000200190FFE70198F0
:101A500003283AD8FFE7019880001D4A8058000407
:101A6000C00F00900099019880008058400B0840FA
:101A7000012420400090009B019881008858DB07DA
:101A80001B0CE403A043C01888500098002817D00E
:101A9000FFE7019881000F484058002806D0FFE773
:101AA000019881000B484058804708E00198810068
:101AB000074A885801235B0398438850FFE7FFE7F4
:101AC000FFE70198401C0190C1E702B010BDC0467D
:101AD000240004409000002083B002900298A349A3
:101AE0004018019002980090802800D93AE10098AF
:101AF000810001A040588746FD1C0000651D0000C4
:101B0000651D0000651D0000FD1C0000651D000036
:101B1000651D0000651D0000FD1C0000651D000026
:101B2000651D0000651D0000FD1C0000651D000016
:101B3000651D0000651D0000FD1C0000651D000006
:101B4000651D0000651D0000FD1C0000651D0000F6
:101B5000651D0000651D0000FD1C0000651D0000E6
:101B6000651D0000651D0000FD1C0000651D0000D6
:101B7000651D0000651D0000FD1C0000651D0000C6
:101B8000651D0000651D0000FD1C0000651D0000B6
:101B9000651D0000651D0000FD1C0000651D0000A6
:101BA000651D0000651D0000FD1C0000651D000096
:101BB000651D0000651D0000FD1C0000651D000086
:101BC000651D0000651D0000FD1C0000651D000076
:101BD000651D0000651D0000FD1C0000651D000066
:101BE000651D0000651D0000FD1C0000651D000056
:101BF000651D0000651D0000FD1C0000651D000046
:101C0000651D0000651D0000FD1C0000651D000035
:101C1000651D0000651D0000FD1C0000651D000025
:101C2000651D0000651D0000FD1C0000651D000015
:101C3000651D0000651D0000FD1C0000651D000005
:101C4000651D0000651D0000371D0000651D0000BA
:101C5000651D0000651D0000FD1C0000651D0000E5
:101C6000651D0000651D0000FD1C0000651D0000D5
:101C7000651D0000651D0000FD1C0000651D0000C5
:101C8000651D0000651D0000FD1C0000651D0000B5
:101C9000651D0000651D0000FD1C0000651D0000A5
:101CA000651D0000651D0000FD1C0000651D000095
:101CB000651D0000651D0000FD1C0000651D000085
:101CC000651D0000651D0000FD1C0000651D000075
:101CD000651D0000651D0000FD1C0000651D000065
:101CE000651D0000651D0000FD1C0000651D000055
:101CF000651D0000651D0000FD1C000001980068C6
:101D0000C00F002805D0FFE701995B20000608609E
:101D1000FFE70199086801221043022398430860F5
:101D20000199086853051843086001990868D207AB
:101D30001043086017E00E480068C00F002805D067
:101D4000FFE75B2000060A490860FFE708490868CA
:101D5000012210430223984308600868D207104309
:101D6000086000E0FFE703B07047C046005006403F
:101D70005450064083B00290029896494018019052
:101D800002980090802800D921E10098810001A0EC
:101D900040588746991F0000CF1F0000CF1F00004A
:101DA000CF1F0000991F0000CF1F0000CF1F0000B1
:101DB000CF1F0000991F0000CF1F0000CF1F0000A1
:101DC000CF1F0000991F0000CF1F0000CF1F000091
:101DD000CF1F0000991F0000CF1F0000CF1F000081
:101DE000CF1F0000991F0000CF1F0000CF1F000071
:101DF000CF1F0000991F0000CF1F0000CF1F000061
:101E0000CF1F0000991F0000CF1F0000CF1F000050
:101E1000CF1F0000991F0000CF1F0000CF1F000040
:101E2000CF1F0000991F0000CF1F0000CF1F000030
:101E3000CF1F0000991F0000CF1F0000CF1F000020
:101E4000CF1F0000991F0000CF1F0000CF1F000010
:101E5000CF1F0000991F0000CF1F0000CF1F000000
:101E6000CF1F0000991F0000CF1F0000CF1F0000F0
:101E7000CF1F0000991F0000CF1F0000CF1F0000E0
:101E8000CF1F0000991F0000CF1F0000CF1F0000D0
:101E9000CF1F0000991F0000CF1F0000CF1F0000C0
:101EA000CF1F0000991F0000CF1F0000CF1F0000B0
:101EB000CF1F0000991F0000CF1F0000CF1F0000A0
:101EC000CF1F0000991F0000CF1F0000CF1F000090
:101ED000CF1F0000991F0000CF1F0000CF1F000080
:101EE000CF1F0000CF1F0000CF1F0000CF1F00003A
:101EF000CF1F0000991F0000CF1F0000CF1F000060
:101F0000CF1F0000991F0000CF1F0000CF1F00004F
:101F1000CF1F0000991F0000CF1F0000CF1F00003F
:101F2000CF1F0000991F0000CF1F0000CF1F00002F
:101F3000CF1F0000991F0000CF1F0000CF1F00001F
:101F4000CF1F0000991F0000CF1F0000CF1F00000F
:101F5000CF1F0000991F0000CF1F0000CF1F0000FF
:101F6000CF1F0000991F0000CF1F0000CF1F0000EF
:101F7000CF1F0000991F0000CF1F0000CF1F0000DF
:101F8000CF1F0000991F0000CF1F0000CF1F0000CF
:101F9000CF1F0000991F000001980068C00F0028A3
:101FA00005D0FFE701995B2000060860FFE7019973
:101FB000086801225305984308600199086818438E
:101FC000086001990868D2071043086000E0FFE745
:101FD00003B070470050064080B5002000F020F9A3
:101FE00080BD80B5012000F01BF980BD80B50220C6
:101FF00000F016F980BD000083B0029001910298B4
:1020000081007E4840580090019A0099086FD207DD
:10201000D20D01231B0298438018086703B0704754
:1020200084B0039002910398810074484058019055
:1020300002980090072845D80098810001A04058D8
:102040008746C04665200000712000007D2000000A
:102050008920000095200000A1200000AD20000094
:10206000B9200000019908690122104308612AE0A3
:102070000199086902221043086124E00199086966
:102080000422104308611EE00199086908221043E8
:10209000086118E00199086910221043086112E0F4
:1020A000019908692022104308610CE00199086930
:1020B00040221043086106E001990869802210431C
:1020C000086100E0FFE704B07047C04685B00490A7
:1020D0000391029204988100D148405801900398DE
:1020E0000090072863D80098810001A040588746D7
:1020F0001121000023210000372100004B210000A6
:102100005F21000073210000872100009B21000057
:10211000029A0199486F01231A4098438018486732
:1021200046E0029A0199486FD207920F0223984322
:10213000801848673CE0029A0199486FD207520F15
:10214000042398438018486732E0029A0199486F47
:10215000D207120F082398438018486728E0029A94
:102160000199486FD207D20E102398438018486710
:102170001EE0029A0199486FD207920E20239843DD
:102180008018486714E0029A0199486FD207520EEE
:1021900040239843801848670AE0029A0199486FE3
:1021A000D207120E802398438018486700E0FFE7AB
:1021B00005B0704783B00290019102988100984861
:1021C00040580090019A00990869D207520D0123E6
:1021D0009B0298438018086103B0704783B0029057
:1021E0000191029881008E48405800900098019912
:1021F00089004018806B80B203B07047783C0000C3
:1022000083B0029001910092009802992C224A43D7
:1022100086498918019A9200885003B07047C046D9
:1022200070B594B0139000201290119010900F9000
:1022300013998A007A4989580E9113998A0079492D
:1022400089580D91784A01A978CA78C178CA78C1AD
:1022500078CA78C10D9949690C9A114011910D996C
:10226000C96E0B9A114010911290FFE7129807283F
:1022700045D8FFE711981299C840C007002839D007
:10228000FFE70E981299890040188069C006C00FB8
:1022900000282FD0FFE70D98129989004018806917
:1022A0000F900F98202188430F900F980D99129A44
:1022B00092008918886113982C2141435B4840188B
:1022C00012998900405800280AD0FFE713982C2162
:1022D000414356484018129989004058804708E009
:1022E0000E981299890041188869102290438861DC
:1022F000FFE7FFE7FFE71298401C1290B6E711983E
:10230000099908422BD0FFE70E980069C005C00F5D
:10231000002824D0FFE70D9840690F900F98012105
:10232000090288430F900F980D99486113982C214A
:1023300041433E484018006A002808D0FFE7139840
:102340002C21414339484018006A804706E00E9925
:1023500008690122120290430861FFE7FFE7119824
:102360000A9908422BD0FFE70E9800698005C00F3C
:10237000002824D0FFE70D9840690F900F980121A5
:10238000490288430F900F980D99486113982C21AA
:10239000414326484018406A002808D0FFE71398B8
:1023A0002C21414321484018406A804706E00E999D
:1023B00008690122520290430861FFE7FFE7109885
:1023C0000B99084229D0FFE70E98806E4006C00F97
:1023D000002822D0FFE70D98C06E0F900F981021B3
:1023E00088430F900F980D99C86613982C2141438C
:1023F0000E484018806A002808D0FFE713982C2167
:1024000041430A484018806A804705E00E99886E6B
:10241000402290438866FFE7FFE714B070BDC046D6
:10242000783C0000843C0000EC3B0000A000002051
:1024300010B587B006900591049206988100D548A2
:1024400040580390049841424841029005980190F9
:102450000B2800D9ECE00198810001A04058874684
:1024600091240000A5240000B9240000CD24000020
:10247000E1240000F5240000092500001D250000CE
:1024800031250000472500005D2500007125000072
:10249000029A03998869D207D20E102398438018B4
:1024A0008861C6E0029A0399C869D207D20E102348
:1024B00098438018C861BCE0029A0399086AD20761
:1024C000D20E1023984380180862B2E0029A039952
:1024D000486AD207D20E1023984380184862A8E0B9
:1024E000029A0399886AD207D20E10239843801863
:1024F00088629EE0029A0399C86AD207D20E10231E
:1025000098438018C86294E0029A0399086BD20736
:10251000D20E10239843801808638AE0029A039928
:10252000486BD207D20E102398438018486380E08E
:10253000029A03990869D207D20D01231B0298431E
:102540008018086175E0029A03990869D207920D14
:1025500001235B029843801808616AE0029A03999C
:10256000886ED207520E402398438018886660E038
:10257000029A03998869D207D20E1023DB43009395
:10258000184080188861029A0399C869D207D20E50
:1025900018408018C861029A0399086AD207D20EBF
:1025A000184080180862029A0399486AD207D20E2E
:1025B000184080184862029A0399886AD207D20E9E
:1025C000184080188862029A0399C86AD207D20E0E
:1025D00018408018C862029A0399086BD207D20E7D
:1025E000184080180863029A0399486BD207D20EEC
:1025F000184080184863029A03990869D207D20DDF
:1026000001231C02A04380180861029A03990869FB
:10261000D207920D5B02984380180861029A0399D1
:10262000886ED207520E402398438018886600E0D7
:10263000FFE707B010BDC04683B002900191029839
:102640008100F84840580090019A0099086FD2071D
:10265000920D01235B0298438018086703B070470E
:1026600070B58AB00990089109988100ED484058EA
:10267000079007990869012292029043086108981F
:1026800082880799C868C24B18408018C8600898AB
:1026900042880799886818408018886006A9002039
:1026A0000870FFE706A800780899097888426FDA71
:1026B000FFE70898806806AC2278182103915143FF
:1026C0004058059005A80078400804A902910870B8
:1026D000099809780022019200F05CF9019A0299A8
:1026E0000998097800F0A0F9039B079805998900DB
:1026F0004118886908221043042290438861089891
:102700008068227819465143401842680798059915
:1027100089004118886903252A40A84380188861E8
:1027200009980599089A926825786B43D21892689F
:1027300000F00CFA0299039B0898806825781A46E5
:102740006A43801885890798059A92008218906BD1
:102750008F4E30404019906309980978089A926822
:1027600025786B43D218126900F0A6F90299039BF1
:1027700009980978089A926824786343D2185269B4
:1027800000F064FAFFE70698401C06A9087089E784
:102790000AB070BD783C000080B586B00590049109
:1027A00005988100E848405803900498006801901B
:1027B000002808D0FFE70198012832D0FFE70198F0
:1027C00002285CD062E00399486F0122D30298434B
:1027D00048670399486F904348670399486F0222FE
:1027E000904348670399486F0422904348670399D0
:1027F000486F0822904348670399486F102290431E
:1028000048670399486F2022904348670399486FAF
:102810004022904348670399486F8022904348675D
:1028200035E00399486F0122D302184348670399A2
:10283000486F904348670399486F02229043486766
:102840000399486F0422904348670399486F082210
:10285000904348670399486F102290434867039953
:10286000486F2022904348670399486F4022904365
:1028700048670399486F80229043486707E00399AF
:10288000486F0122D2029043486700E0FFE70498B6
:1028900002790399486FD206D20A1F231B0498437A
:1028A0008018486702A900200870FFE702A8007896
:1028B00004994979884211DAFFE7059804998968F3
:1028C00002AA1278D300CA18C9585268FFF7FEFB53
:1028D000FFE70298401C02A90870E7E706B080BD38
:1028E00083B00290019102988100D748405800902F
:1028F0000198012807D1FFE70099486F01221202D1
:102900001043486706E00099486F01221202904385
:102910004867FFE703B0704783B0029001910298C7
:102920008100EE4840580090019801280CD1FFE743
:102930000099086F01229304184308670099086FF3
:10294000D204104308670BE00099086F012293043A
:10295000984308670099086FD20490430867FFE71F
:1029600003B0704784B00390029101A802800399DC
:102970008A00E949895800910288009802998900E3
:102980004118886B024B18408018886304B0704768
:102990000000FFFF85B0049003910292049881002B
:1029A000DD484058019003980090032837D80098DC
:1029B000810001A040588746C9290000DD29000098
:1029C000F3290000092A0000029A0199086ED20733
:1029D000520F042398438018086621E0029A019957
:1029E000086ED207520D01239B0298438018086697
:1029F00016E0029A0199086ED207520B01239B043C
:102A00009843801808660BE0029A0199086ED20775
:102A1000520901239B0698438018086600E0FFE7EF
:102A200005B07047783C000085B004900391029295
:102A300004988100B84840580190039800900328FA
:102A400037D80098810001A0405887465D2A0000D1
:102A5000712A0000872A00009D2A0000029A01992D
:102A6000086ED207D20E102398438018086621E022
:102A7000029A0199086ED207D20C01231B039843D6
:102A80008018086616E0029A0199086ED207D20AE9
:102A900001231B059843801808660BE0029A0199F0
:102AA000086ED207D20801231B07984380180866D6
:102AB00000E0FFE705B0704785B0049003910292F3
:102AC000049881009448405801900398009003288E
:102AD00036D80098810001A040588746ED2A0000B2
:102AE000FF2A0000152B00002B2B0000029A0199F1
:102AF000086E01231A4098438018086621E0029A64
:102B00000199086ED207D20D01231B029843801849
:102B1000086616E0029A0199086ED207D20B0123CB
:102B20001B049843801808660BE0029A0199086E0E
:102B3000D207D20901231B0698438018086600E0DB
:102B4000FFE705B07047C046783C000085B00490B0
:102B500003910292049881006F48405801900398B5
:102B6000009007286CD80098810001A04058874643
:102B7000912B0000A72B0000BD2B0000D32B0000E1
:102B8000E92B0000FF2B0000152C00002B2C00006F
:102B9000029A0199886DD207D20D01231B02984336
:102BA000801888654DE0029A0199886DD207920DD0
:102BB00001235B0298438018886542E0029A0199DC
:102BC000886DD207520D01239B02984380188865B7
:102BD00037E0029A0199886DD207120D0123DB02BA
:102BE0009843801888652CE0029A0199886DD20775
:102BF000D20C01231B0398438018886521E0029AB8
:102C00000199886DD207920C01235B0398438018C9
:102C1000886516E0029A0199886DD207520C01234B
:102C20009B039843801888650BE0029A0199886D90
:102C3000D207120C0123DB0398438018886500E05B
:102C4000FFE705B07047C046783C000085B00490AF
:102C500003910292049881002F48405801900398F4
:102C60000090032837D80098810001A0405887467B
:102C7000812C0000952C0000AB2C0000C12C000022
:102C8000029A0199086ED207120F08239843801800
:102C9000086621E0029A0199086ED207120D0123FD
:102CA000DB0298438018086616E0029A0199086EC4
:102CB000D207120B0123DB049843801808660BE04F
:102CC000029A0199086ED20712090123DB06984384
:102CD0008018086600E0FFE705B07047783C000008
:102CE00084B0039002910192039881000A484058F1
:102CF0000090029A0099086803231A4098438018AC
:102D00000860019A009908685207D20E1C23984364
:102D10008018086004B07047783C000080B582B02D
:102D200001900091019800990968FFF765F90198F1
:102D300000994968FFF780FC019800998968FFF7BE
:102D4000EBFD0098C068012806D1FFE701980099C3
:102D50000969FFF721FDFFE702B080BD80B50020C3
:102D600000F000F980BD80B5012000F0FBF880BDC7
:102D700080B5022000F0F6F880BD80B5032000F099
:102D8000F1F880BD82B00190019881006D484058F3
:102D900000900098C06F0121084002B07047C04603
:102DA00084B0039002910398810008484058009035
:102DB0000098406902998A00054989580840411ED7
:102DC00088410190019804B07047C046083D00005A
:102DD000B43C0000B0B58CB00B900A913020079045
:102DE0002C20069028200590242004900B98810028
:102DF00004A84058039003980A994969FDF79CFC80
:102E000002900B988100F448405801900199C868DD
:102E1000802200921043C86002980A99096809014B
:102E2000FDF77FFB099009A80478019A1168FF2338
:102E3000DB4319400919116042780199486818402C
:102E40008018486002980A9909680901FDF769FB32
:102E500008910A9801680898FDF763FB009A0890AA
:102E6000089C0199C023C8580F252C40A84300197D
:102E7000C8500199C8689043C8600A9880680028C3
:102E800006D1FFE70199C86808229043C8601BE09B
:102E90000A98806801280BD1FFE70199C8680822C9
:102EA0001043C8600199C86810229043C8600AE0C6
:102EB0000199C86808221043C8600199C8681022A7
:102EC0001043C860FFE7FFE70A984068042807D16D
:102ED000FFE70199CC22885801231843885009E064
:102EE0000A9842680199C86803231A4098438018D9
:102EF000C860FFE70A98C2680199C868D207520FF4
:102F0000042398438018C8600A98026901990869E7
:102F1000D207920E20239843801808610A9800690E
:102F2000012806D1FFE701990869022210430861D0
:102F300005E001990869022290430861FFE70CB09F
:102F4000B0BDC046F83C000083B0029001910092F1
:102F5000009802994A01A2498918019A9200885062
:102F600003B0704780B586B0059005988100B548DC
:102F70004058029005988100BA4840580190019845
:102F8000406905998A009549885002984068C005B3
:102F9000C00F002821D0FFE7059881008F48401816
:102FA00040786C21084217D0FFE7059841018C4812
:102FB00040184069002807D0FFE70598410188487C
:102FC00040184069804706E00299486801221202D1
:102FD00090434860FFE7FFE7FFE7029840688005FD
:102FE000C00F002821D0FFE7059881007B484018DA
:102FF0004078B021084217D0FFE705984101784892
:1030000040188069002807D0FFE7059841017448FF
:1030100040188069804706E0029948680122520200
:1030200090434860FFE7FFE7FFE7029840684007EA
:10303000C00F00281FD0FFE7059881006748405C5B
:103040009E21084216D0FFE70598410164484018C8
:103050008068002807D0FFE70598410160484018C4
:103060008068804705E002994868042290434860E0
:10307000FFE7FFE7FFE7029840684005C00F002820
:1030800021D0FFE705988100544840184078800718
:10309000002817D5FFE70598410151484018C0693D
:1030A000002807D0FFE7059841014D484018C06946
:1030B000804706E0029948680122920290434860E6
:1030C000FFE7FFE7FFE7029880680F2108400490C0
:1030D0000498801E00900A2876D80098810001A0EC
:1030E0004058874611310000C93100003D310000D1
:1030F000C9310000C931000065310000C93100004C
:10310000C9310000C9310000C93100009731000009
:1031100005984101324840184068002807D0FFE771
:10312000059841012E4840184068804705E0029903
:103130004868022290434860FFE746E00598410155
:1031400027484058002806D0FFE705984101244849
:103150004058804705E00299486801229043486042
:10316000FFE732E00198C06F0390059841011C48C9
:103170004018C068002807D0FFE7059841011848AB
:103180004018C068804705E00299486801229043D2
:103190004860FFE719E00198006803900598410135
:1031A0000F4840180069002807D0FFE70598410143
:1031B0000B4840180069804705E0029948680122E1
:1031C00090434860FFE700E0FFE70598820003496D
:1031D0000020885006B080BDF83C0000AC01002003
:1031E0002C01002084B00390029101920398810089
:1031F0001C48405800900198002809D1FFE7029828
:10320000810009484258009948681043486008E026
:1032100002988100044842580099486890434860E9
:10322000FFE704B07047C046903C000082B00190B8
:103230000198810003484058009000980068C0B28F
:1032400002B07047F83C000083B0029001A8017002
:1032500002998A0003498958009100780099086012
:1032600003B07047083D000080B584B00390029120
:103270000120019000200090FFE700980299884209
:103280000DD2FFE70398FFF77DFD002803D1FFE78C
:103290000020019003E00098401C0090EDE70198A9
:1032A00004B080BD80B582B02E48019000F026F8B1
:1032B0000199886801229043886000F035F802B0D7
:1032C00080BDC04680B582B026480190094800689C
:1032D000002804D0FFE7074800688047FFE700F0B8
:1032E0000DF805480268019988681043886002B0AB
:1032F00080BDC046BC010020183D000081B0EFF346
:10330000108072B6009007B404480549054A016070
:10331000026007BC62B601B070470000142005408F
:10332000C4A1D9B00F3B1E1A83B00E4802900020F2
:1033300001900090FFE702988068C001C00F00284C
:103340000CD1FFE70198000D002803D0FFE7012012
:10335000009003E00198401C0190ECE7009803B056
:103360007047C0460020054081B0009000980028BA
:1033700008D4FFE700991F2001400120884012492E
:103380000860FFE701B0704781B000900098002806
:1033900008D4FFE700991F200140012088400A4916
:1033A0000860FFE701B0704781B0009000980028E6
:1033B00008D4FFE700991F200140012088400249FE
:1033C0000860FFE701B0704700E100E080B582B01F
:1033D000082000900321FDF785FB0098FEF77CFB99
:1033E0000A4900200190FEF7A7FA0199084A084609
:1033F000FEF708FB01980121FEF712FB0198FEF78A
:103400008FFA1C20FFF7C0FF02B080BD583C0000BF
:103410000919000080B5FDF7EDFF00F00BFA00F090
:103420008BFA80BD80B584B000F08AF8014603A80D
:10343000018000210091405EFDF716F8009A194BBB
:10344000FCF79AFFFDF751F802900298FDF739F862
:10345000009A154BFCF728FFFDF747F801900198FB
:1034600004B080BD80B584B000F052F8014603A8D6
:10347000018000210091405EFCF7F6FF009A094BA5
:10348000FCF77AFFFDF731F802900298FDF719F882
:10349000009A054BFCF708FFFDF727F8019001980B
:1034A00004B080BD000046400000144080B584B0E8
:1034B0000390029103980190002804D0FFE701983F
:1034C000012806D00BE00C2100221046FDF7F0FF8A
:1034D00006E000200C210122FDF7EAFF00E0FFE7F3
:1034E00002980090002804D0FFE70098012806D039
:1034F0000BE00D2100221046FDF7DAFF06E0002068
:103500000D210122FDF7D4FF00E0FFE704B080BDEC
:1035100080B584B00120019000210091FEF75EFE8D
:10352000009902460198124BD21803AB02931A80FD
:10353000104AFFF717FA0298008804B080BDC04611
:1035400080B584B00220019000210091FEF746FE74
:10355000009902460198064BD21803AB02931A80D9
:10356000044AFFF7FFF90298008804B080BDC04606
:103570000180FFFFFF7F000080B590B064200090C5
:1035800004210591FDF7AEFA0098FEF7A5FA05991A
:103590006C200190FDF7A6FA0198FEF79DFA05212F
:1035A0000391012204921046FEF7F4F8049A05995B
:1035B0001046FEF7EFF8049A0320069010210791B9
:1035C000FEF7E8F8039904980023089309930A93F7
:1035D0000B930C930D900E9309AA02921376FEF7AB
:1035E00047F8029A04980599FEF742F8029A06985D
:1035F0000799FEF73DF80399049A1046FDF73AFF44
:10360000049A05991046FDF735FF049A0698079924
:10361000FDF730FF03990498089AFDF749FF0498D5
:103620000599089AFDF744FF06980799089AFDF74F
:103630003FFF10B080BD000080B58AB00022099223
:1036400001210846FDF7CAFBFFE70020FDF7DAFD80
:10365000012801D1FFE7F8E7FFF724FE7C20FEF701
:103660003BFA85200021FDF743FCFFF785FFFFF7BC
:10367000ADFEE120400200F03DFAFFF7CBFEFFE790
:1036800066480078401E08900C2800D9C3E00898CE
:10369000810001A040588746CD360000E736000083
:1036A000FF360000173700002F37000047370000B3
:1036B0005F3700007937000093370000AD37000016
:1036C000C7370000E1370000FB37000000210791F9
:1036D0000846FEF79BF807990846FFF7E7FE0798AC
:1036E0004E49087098E052490846FEF78FF80121CC
:1036F0000846FFF7DBFEFE49002008708CE04B49CE
:103700000846FEF783F801210846FFF7CFFEF84987
:103710000020087080E044490846FEF777F8012150
:103720000846FFF7C3FEF2490020087074E03D49E7
:103730000846FEF76BF801210846FFF7B7FEEC4993
:103740000020087068E036490846FEF75FF801215E
:103750000846FFF7ABFEE649002008705CE07F20DA
:10376000C1050846FEF752F801210846FFF79EFE04
:10377000DF49002008704FE02D490846FEF746F863
:10378000002106910846FFF791FE0698D849087077
:1037900042E026490846FEF739F80021059108461F
:1037A000FFF784FE0598D249087035E01E490846A7
:1037B000FEF72CF8002104910846FFF777FE0498E5
:1037C000CB49087028E017490846FEF71FF800218A
:1037D00003910846FFF76AFE0398C54908701BE08D
:1037E0000F490846FEF712F8002102910846FFF73C
:1037F0005DFE0298BE4908700EE07F20C1050846B4
:10380000FEF704F8002101910846FFF74FFE0198EA
:10381000B749087000E0FFE732E7C04680000020AB
:103820006666663FCDCC4C3F9A99193FCDCCCC3ED5
:10383000CDCC4C3EB0B59CB07020009004210591D9
:10384000FDF750F90098FEF747F905990C20019013
:10385000FDF748F9019800210A91FDF749FB01980D
:10386000FEF788FA0198FEF737F90A9806210791C2
:103870001691012409941794189416AA0392908122
:103880001A901B9413A904910C704880224B029348
:103890008B801592FEF7E4FE029B039A04990A9826
:1038A0000725089516951794189490811A901B94E3
:1038B0000C7048808B801592FEF7D2FE099A0A9808
:1038C000109010A90871487112900B920C920D90F3
:1038D0000E920F910BA9FFF721FA0A990846FEF7FD
:1038E00069FC0598082102220692FDF753FF05980E
:1038F000069A0921FDF74EFF07990A98FEF790FBFB
:1039000008990A98FEF78CFB09990A9A1046FFF766
:10391000E7F91CB0B0BDC046FFFF000080B5FFF75F
:10392000A1FD03490860FFF77DFD0249086080BDE5
:10393000780000207C00002080B584B01420019025
:103940000421FDF7CFF8019800210391FDF7D0FA8B
:103950000198FEF70FFA0198FEF7BEF80C4A022113
:1039600002910846FEF74CFC02980399FEF722FCF0
:103970000298039A0121FFF7B3F90299039A0846C6
:10398000FEF756FD1320FFF70FFD04B080BDC046C3
:103990001D39000010B584B001200021FFF700FAA6
:1039A000012800D09CE001200290FFF73FFC034675
:1039B00002984C4903910C88621C0A804A4A1355AC
:1039C00009888918491E0978FFF73EFC039800888A
:1039D000032800D083E04349002008804248007853
:1039E000AA287BD1FFE740488078BB2876D1FFE743
:1039F0003D490A783D4802708A7882704978417062
:103A000040780190162867D80198810001A040589D
:103A10008746C046713A0000A93A0000B13A00005A
:103A2000B93A0000C13A0000C93A0000D13A00009A
:103A3000D93A0000D93A0000D93A0000D93A00003A
:103A4000D93A0000D93A0000D93A0000D93A00002A
:103A5000D93A0000D93A0000793A0000813A0000D2
:103A6000893A0000913A0000993A0000A13A00001A
:103A70001F490120087030E01D49022008702CE029
:103A80001B490320087028E019490420087024E02D
:103A900017490520087020E01549062008701CE031
:103AA00013490720087018E011490820087014E035
:103AB0000F490920087010E00D490A2008700CE039
:103AC0000B490B20087008E009490C20087004E03D
:103AD00007490D20087000E0FFE7FFE7FFE7FFE779
:103AE00004B010BD28010020240100208100002026
:103AF0008000002080B58EB00D9028200290042117
:103B00000391FCF7EFFF029800210691FDF7F0F911
:103B10000298FDF7E1FF039968200490FCF7E2FFAB
:103B20000498FDF7D9FF0721022205921046FDF700
:103B300031FE059A06211046FDF72CFE06980D99D8
:103B400007910321089109900A900B9011480C905D
:103B5000FFE701201049FFF787FB012804D1FFE7A9
:103B60000120FFF763FBF4E70C4A012001900021DC
:103B70000091FFF7E9F9009A01981146FFF732FB2F
:103B80000B20FFF7F1FB019807A9FFF723F90EB00F
:103B900080BDC046005A6202581B000095390000E3
:103BA0002021020C01D010211046020A01D010463B
:103BB0000839020901D01046091F820801D01046B9
:103BC000891E420801D0881E7047081A704702E01B
:103BD00008C8121F08C1002AFAD170477047002098
:103BE00001E001C1121F002AFBD170470100000053
:103BF00002000000040000000800000010000000A7
:103C000020000000400000008000000000010000D3
:103C10000002000010000000FF03000000F00F4051
:103C200040F00F4080F00F40C0F00F4000F10F4017
:103C30000090044000A0044000B0044000C00440D4
:103C400000D004400090044000A0044000B00440B4
:103C500000C0044000D004400000000000FA000052
:103C60000000000000000000000000000000000054
:103C700000000000000000000080034000900340AE
:103C800000A00340008003400090034000A00340D8
:103C9000010000008200000004000000000000009D
:103CA000010000000001000000020000000400000C
:103CB0008F07000001000000020000000400000067
:103CC000080000001000000020000000400000007C
:103CD000800000009E0000000001000000020000C3
:103CE0000004000000080000001000000020000098
:103CF000004000000080000000A0064000B0064028
:103D000000C0064000D0064000A0064000B00640BB
:103D100000C0064000D0064000000004000000047F
:103D2000403D00000000002074000000CE3B000079
:103D3000B43D0000740000204C010000DE3B000098
:103D40000050064004500640085006400C50064003
:103D50001050064014500640185006401C500640B3
:103D60002050064024500640285006402C50064063
:103D70003050064034500640385006403C50064013
:103D80004050064044500640485006404C500640C3
:103D90005050064054500640585006405C50064073
:103DA0006050064064500640685006406C50064023
:043DB0007050064009
:04000005000000DD1A
:00000001FF
